:100000000C942A000C943C000C943C000C943C0092
:100010000C943C000C943C000C943C000C943C0070
:100020000C943C000C943C000C943C000C943C0060
:100030000C9410030C943C000C943C000C943C0079
:100040000C943C000C943C000C943C000C943C0040
:100050000C943C0011241FBECFE5D8E0DEBFCDBF1D
:1000600020E0A0E6B0E001C01D92A236B207E1F7A1
:100070000E9458040C94DD060C940000CF93DF938B
:1000800000D01F92CDB7DEB78A836B8319828A8135
:10009000882F90E08430910599F0853091051CF40B
:1000A000019741F01FC08331910581F081369105A0
:1000B00099F018C08BE390E02B81FC01208315C0E0
:1000C00088E390E02B81FC0120830FC085E390E062
:1000D0002B81FC01208309C082E390E02B81FC018D
:1000E000208303C081E08983000089810F900F90F5
:1000F0000F90DF91CF910895CF93DF9300D000D080
:10010000CDB7DEB78A836B834C8319828B818830AD
:1001100008F0DEC08C81882309F06CC08A81882FAA
:1001200090E08430910519F1853091051CF4019718
:1001300049F05CC08331910579F18136910509F46C
:1001400040C054C08BE390E02BE330E0F9016081C4
:100150002B81422F50E021E030E002C0220F331FFC
:100160004A95E2F720952623FC012083B3C088E35B
:1001700090E028E330E0F90160812B81422F50E0CC
:1001800021E030E002C0220F331F4A95E2F72095AC
:100190002623FC0120839EC085E390E025E330E028
:1001A000F90160812B81422F50E021E030E002C054
:1001B000220F331F4A95E2F720952623FC01208366
:1001C00089C082E390E022E330E0F90160812B8175
:1001D000422F50E021E030E002C0220F331F4A9549
:1001E000E2F720952623FC01208374C081E08983F7
:1001F000000070C08C81813009F067C08A81882F2F
:1002000090E08430910509F1853091051CF4019747
:1002100041F057C08331910561F181369105E9F1D3
:1002200050C08BE390E02BE330E0F90160812B813B
:10023000422F50E021E030E002C0220F331F4A95E8
:10024000E2F7262BFC01208345C088E390E028E3F9
:1002500030E0F90160812B81422F50E021E030E055
:1002600002C0220F331F4A95E2F7262BFC012083A0
:1002700031C085E390E025E330E0F90160812B8116
:10028000422F50E021E030E002C0220F331F4A9598
:10029000E2F7262BFC0120831DC082E390E022E3DD
:1002A00030E0F90160812B81422F50E021E030E005
:1002B00002C0220F331F4A95E2F7262BFC01208350
:1002C00009C081E08983000005C081E0898302C004
:1002D00081E0898389810F900F900F900F90DF91BB
:1002E000CF910895CF93DF9300D000D0CDB7DEB784
:1002F0008A837C836B838A81882F90E08430910588
:10030000B1F0853091051CF4019741F02BC0833189
:100310009105B1F081369105E1F024C089E390E0C8
:10032000FC0120818B819C81FC0120831EC086E31F
:1003300090E0FC0120818B819C81FC01208315C011
:1003400083E390E0FC0120818B819C81FC01208370
:100350000CC080E390E0FC0120818B819C81FC013A
:10036000208303C081E08983000089810F900F9072
:100370000F900F90DF91CF910895CF93DF9300D02E
:1003800000D01F92CDB7DEB78A836B835D834C8329
:100390008A81882F90E08430910519F1853091058C
:1003A0001CF4019749F05CC08331910579F18136E5
:1003B000910509F440C054C089E390E0FC018081BC
:1003C000882F90E02B81222F30E002C095958795F1
:1003D0002A95E2F7282F21708C819D81FC012083D2
:1003E00042C086E390E0FC018081882F90E02B8161
:1003F000222F30E002C0959587952A95E2F7282FA5
:1004000021708C819D81FC0120832DC083E390E0CD
:10041000FC018081882F90E02B81222F30E002C0E8
:10042000959587952A95E2F7282F21708C819D81DB
:10043000FC01208318C080E390E0FC018081882FBC
:1004400090E02B81222F30E002C0959587952A9568
:10045000E2F7282F21708C819D81FC01208303C04D
:1004600081E08983000089810F900F900F900F9099
:100470000F90DF91CF910895CF93DF9300D000D0FC
:10048000CDB7DEB789836A834B832C838DE290E0FE
:100490002DE230E0F9012081207CFC0120838DE2F7
:1004A00090E02DE230E0F9012081522F2C81222FA3
:1004B00030E0220F331F22953295307F3227207F84
:1004C0003227422F2981222F30E022953295307F2A
:1004D0003227207F3227422B2A81222F30E0220F21
:1004E000331F220F331F342F322B2B812370232BEA
:1004F000252BFC0120838EE290E02EE230E0F90112
:1005000020812E7FFC0120838EE290E02EE230E0FD
:10051000F9012081322F2B81269526952170232BDE
:10052000FC01208300000F900F900F900F90DF913F
:10053000CF910895CF93DF93CDB7DEB78DE290E0F2
:100540002DE230E0F90120812064FC0120830000CD
:10055000DF91CF910895CF93DF93CDB7DEB78DE2D2
:1005600090E02DE230E0F90120812F7BFC01208317
:100570000000DF91CF910895CF93DF93CDB7DEB721
:100580008DE290E02DE230E0F90120812068FC014D
:1005900020830000DF91CF910895CF93DF93CDB7F3
:1005A000DEB78DE290E02DE230E0F90120812F7777
:1005B000FC0120830000DF91CF910895CF93DF935A
:1005C00000D0CDB7DEB79A83898389819A819093D1
:1005D00061008093600000000F900F90DF91CF9139
:1005E0000895CF93DF931F92CDB7DEB789838FE253
:1005F00090E02981FC01208300008EE290E0FC0164
:100600008081882314F081E001C080E08823A9F76D
:100610008FE290E0FC0180810F90DF91CF910895EF
:100620001F920F9200905F000F9211242F933F931F
:100630004F935F936F937F938F939F93AF93BF93EA
:10064000EF93FF93CF93DF93CDB7DEB78091600038
:1006500090916100FC0109950000DF91CF91FF911D
:10066000EF91BF91AF919F918F917F916F915F912A
:100670004F913F912F910F9000925F000F901F902C
:100680001895CF93DF93CDB7DEB78AE390E0FC01F6
:10069000108287E390E020EAFC01208384E390E06D
:1006A000FC01108281E390E0FC0110828BE390E07A
:1006B000FC01108288E390E020E1FC01208385E3C7
:1006C00090E0FC01108282E390E0FC0110820000C7
:1006D000DF91CF910895AF92BF92CF92DF92EF92C8
:1006E000FF920F931F93CF93DF93CDB7DEB764973D
:1006F0000FB6F894DEBF0FBECDBF6D837E838F83B0
:10070000988729873A874B875C87ED86FE860F8717
:10071000188BA98ABA8ACB8ADC8A19821A821B8230
:100720001C828DA1813009F054C029893A894B89F6
:100730005C898D859E85AF85B88979018A01E81A23
:10074000F90A0A0B1B0B29A13AA14BA15CA18D81CF
:100750009E81AF81B88559016A01A81AB90ACA0AEF
:10076000DB0AD601C501A8019701BC01CD010E9499
:100770005705DC01CB0189839A83AB83BC83298530
:100780003A854B855C858D819E81AF81B885281B1C
:10079000390B4A0B5B0B89819A81AB81BC81BC010F
:1007A000CD010E946705DA01C90189839A83AB8371
:1007B000BC8329813A814B815C818D859E85AF8583
:1007C000B889820F931FA41FB51F89839A83AB83B7
:1007D000BC838DA1823009F054C02D853E854F85A4
:1007E000588989899A89AB89BC8979018A01E81A73
:1007F000F90A0A0B1B0B29A13AA14BA15CA18D811F
:100800009E81AF81B88559016A01A81AB90ACA0A3E
:10081000DB0AD601C501A8019701BC01CD010E94E8
:100820005705DC01CB0189839A83AB83BC8329857F
:100830003A854B855C858D819E81AF81B885281B6B
:10084000390B4A0B5B0B89819A81AB81BC81BC015E
:10085000CD010E946705DA01C90189839A83AB83C0
:10086000BC8329813A814B815C8189899A89AB89D2
:10087000BC89820F931FA41FB51F89839A83AB8302
:10088000BC8389819A81AB81BC81BC01CD01649616
:100890000FB6F894DEBF0FBECDBFDF91CF911F9191
:1008A0000F91FF90EF90DF90CF90BF90AF900895A1
:1008B000CF93DF93CDB7DEB76C970FB6F894DEBF5A
:1008C0000FBECDBF0E94410321E041E060E081E026
:1008D0000E943C020E949A0281E00E94F10280E0A4
:1008E00090E0A8ECB2E489839A83AB83BC8320E0D8
:1008F00030E04AEF54E469817A818B819C810E94C7
:100900004806DC01CB018B8B9C8BAD8BBE8B20E032
:1009100030E040E85FE36B897C898D899E890E9485
:10092000C20588232CF481E090E0988F8F8B3FC024
:1009300020E03FEF4FE757E46B897C898D899E89E2
:100940000E94430618164CF520E030E040E251E4E6
:1009500069817A818B819C810E944806DC01CB01F0
:10096000BC01CD010E94C705DC01CB01988F8F8BA4
:100970000FC088EC90E09A8F898F898D9A8D0197AE
:10098000F1F79A8F898F8F89988D0197988F8F8B28
:100990008F89988D892B69F714C06B897C898D8923
:1009A0009E890E94C705DC01CB01988F8F8B8F89B0
:1009B000988D9C8F8B8F8B8D9C8D0197F1F79C8FE1
:1009C0008B8F82E00E94F10280E090E0A8ECB2E41C
:1009D0008D839E83AF83B88720E030E04AEF54E4F4
:1009E0006D817E818F8198850E944806DC01CB0154
:1009F00089879A87AB87BC8720E030E040E85FE3D7
:100A000069857A858B859C850E94C20588232CF494
:100A100081E090E09E878D873FC020E03FEF4FE769
:100A200057E469857A858B859C850E944306181654
:100A30004CF520E030E040E251E46D817E818F8111
:100A400098850E944806DC01CB01BC01CD010E94C3
:100A5000C705DC01CB019E878D870FC088EC90E035
:100A6000988B8F878F8598890197F1F7988B8F875F
:100A70008D859E8501979E878D878D859E85892B87
:100A800069F714C069857A858B859C850E94C705A6
:100A9000DC01CB019E878D878D859E859A8B898B06
:100AA00089899A890197F1F79A8B898B15CFDB0198
:100AB0008F939F930E948605BF91AF91A29F800D57
:100AC000911DA39F900DB29F900D11240895052EA6
:100AD00097FB1EF400940E947E0557FD07D00E94EC
:100AE000910507FC03D04EF40C947E05509540957B
:100AF000309521953F4F4F4F5F4F089590958095CA
:100B0000709561957F4F8F4F9F4F08950E94B30559
:100B1000A59F900DB49F900DA49F800D911D112451
:100B20000895A1E21A2EAA1BBB1BFD010DC0AA1F2E
:100B3000BB1FEE1FFF1FA217B307E407F50720F046
:100B4000A21BB30BE40BF50B661F771F881F991FC1
:100B50001A9469F760957095809590959B01AC010A
:100B6000BD01CF010895A29FB001B39FC001A39F13
:100B7000700D811D1124911DB29F700D811D1124D6
:100B8000911D08950E94F60508F481E008950E94E1
:100B9000220688F09F5798F0B92F9927B751B0F0E7
:100BA000E1F0660F771F881F991F1AF0BA95C9F7F1
:100BB00014C0B13091F00E943C06B1E008950C944D
:100BC0003C06672F782F8827B85F39F0B93FCCF300
:100BD000869577956795B395D9F73EF4909580956E
:100BE000709561957F4F8F4F9F4F0895990F000823
:100BF000550FAA0BE0E8FEEF16161706E807F907EF
:100C0000C0F012161306E407F50798F0621B730B89
:100C1000840B950B39F40A2661F0232B242B252B0A
:100C200021F408950A2609F4A140A6958FEF811DAD
:100C3000811D089557FD9058440F551F59F05F3F8F
:100C400071F04795880F97FB991F61F09F3F79F0EE
:100C500087950895121613061406551FF2CF469570
:100C6000F1DF08C0161617061806991FF1CF8695F2
:100C70007105610508940895E894BB2766277727D6
:100C8000CB0197F908950E94F60508F48FEF0895B7
:100C90000E945B060C94CC060E94BE0638F00E94AF
:100CA000C50620F0952311F00C94B5060C94BB06F4
:100CB00011240C943D060E941A0670F3959FC1F30F
:100CC000950F50E0551F629FF001729FBB27F00DFA
:100CD000B11D639FAA27F00DB11DAA1F649F66274F
:100CE000B00DA11D661F829F2227B00DA11D621F9E
:100CF000739FB00DA11D621F839FA00D611D221F58
:100D0000749F3327A00D611D231F849F600D211D3B
:100D1000822F762F6A2F11249F5750409AF0F1F0BE
:100D200088234AF0EE0FFF1FBB1F661F771F881F27
:100D300091505040A9F79E3F510580F00C94B506A4
:100D40000C943D065F3FE4F3983ED4F38695779587
:100D50006795B795F795E7959F5FC1F7FE2B880FCD
:100D6000911D9695879597F9089597F99F6780E863
:100D700070E060E008959FEF80EC089500240A94ED
:100D80001616170618060906089500240A94121666
:100D90001306140605060895092E0394000C11F499
:100DA000882352F0BB0F40F4BF2B11F460FF04C046
:0E0DB0006F5F7F4F8F4F9F4F0895F894FFCFD6
:00000001FF
